:103F00009927D4B794BFDD7019F067D00C940000E6
:103F1000C0ECB2E028E129839EE05FD058D0813424
:103F200021F455D062D04ED044C0823494E119F0CF
:103F3000853419F495E056D03CC0853539F447D026
:103F4000E82F45D0F82FEE0FFF1F32C0863521F441
:103F500094E048D080E0E7CF8436B9F42DD0A0E0DB
:103F600036D08D933A17E1F7A0E03FD0BF0141D0A2
:103F70000D901D9091E03ED032963250C9F7FB0172
:103F800095E038D091E136D014C0843739F414D09C
:103F90002CD0859117D03A95E1F70BC0853741F4C5
:103FA00024D08EE10FD084E90DD086E00BD001C083
:103FB0001CD080E107D0B2CF0AD009D0382F07D06B
:103FC000089584E1988195FFFDCF8E8308958881BF
:103FD00087FFFDCFA8958E81089520936000909370
:103FE00060000895F4DF9A95E9F7F1DF803249F334
:103FF000FFCF93E087B780FDFDCF97BFE895089589
:00000001FF
